:020000040800F2
:100000005014002005C7000821C7000825C70008B4
:1000100029C700082DC7000831C7000800000000EC
:1000200000000000000000000000000035C70008CC
:1000300039C70008000000003DC7000841C700089C
:1000400045C7000849C700084DC7000851C7000848
:1000500055C7000859C700085DC7000861C70008F8
:1000600065C7000869C700086DC7000871C70008A8
:1000700075C7000879C700087DC7000881C7000858
:1000800085C7000889C700088DC7000891C7000808
:1000900095C7000899C700089DC70008A1C70008B8
:1000A000A5C70008A9C70008ADC70008B1C7000868
:1000B000B5C70008B9C70008BDC70008C1C7000818
:1000C000C5C70008C9C70008CDC70008D1C70008C8
:1000D000D5C70008D9C70008DDC70008E1C7000878
:1000E000E5C70008E9C70008EDC70008F1C7000828
:1000F000F5C70008F9C70008FDC7000801C80008D7
:1001000005C8000809C800080DC8000811C8000883
:1001100015C8000819C800081DC8000821C8000833
:1001200025C8000829C800082DC8000831C80008E3
:1001300035C8000839C800083DC8000841C8000893
:1001400045C8000849C800084DC8000851C8000843
:1001500055C8000859C800085DC8000861C80008F3
:1001600065C8000869C800086DC8000871C80008A3
:1001700075C8000879C800087DC8000800000000A4
:1001800081C8000885C8000889C800088DC8000813
:1001900091C8000895C8000899C800089DC80008C3
:1001A000A1C80008A5C80008A9C80008ADC8000873
:1001B000B1C80008B5C80008B9C80008BDC8000823
:1001C000C1C80008C5C8000800000000C9C8000870
:1001D000CDC80008D1C80008D5C80008D9C8000893
:1001E000DDC80008E1C80008E5C80008E9C8000843
:1001F000EDC80008F1C8000800BF704730B500F036
:10020000C6F8DFF8D41700200860DFF8D0070268CE
:1002100042F40032026000F0BAF800220267BFF335
:100220004F8FC26EC2F34E33C2F3C90443F6E0757A
:1002300005EA431545EA84750D6125466C1E002DBF
:10024000F4D11C46631E002CEED1BFF34F8F016822
:1002500041F48031016000F09AF840F20730DFF895
:1002600094170860DFF89007016841F00111016000
:1002700001688907FCD500218160816811F00C0FAD
:10028000FBD14FF001110160DFF870174160DFF81A
:100290007017016001688901FCD5016C41F0805143
:1002A0000164DFF860170A6842F480320A604A6825
:1002B000D203FCD50A6842F400320A604A6892030D
:1002C000FCD5DFF87C178160816801F00C010829FA
:1002D000FAD10168DFF86C2741F400210160416C1C
:1002E00041F48041416401211160016B002241F021
:1002F0001F010163416B4163816B8163016C41F0BC
:10030000005141F413110164416C41F48071416466
:10031000DFF83407DFF83417016000214162016221
:100320004161DFF82C178160DFF82807DFF8281714
:100330000160DFF8281741624FF0884101624FF4F5
:1003400080514161C02141608160DFF81407DFF80E
:1003500014170160DFF8101741620021016242F2B8
:10036000601141614FF44021816000F076FADFF8BE
:10037000FC06DFF8FC160160DFF8F816416248F26F
:100380000D010262416140F25541816030BDBFF311
:100390004F8FBFF36F8F70470021D5E000BF00BFC4
:1003A00000BF00BF00BF00BF00BF00BF00BF00BF55
:1003B00000BF00BF00BF00BF00BF00BF00BF00BF45
:1003C00000BF00BF00BF00BF00BF00BF00BF00BF35
:1003D00000BF00BF00BF00BF00BF00BF00BF00BF25
:1003E00000BF00BF00BF00BF00BF00BF00BF00BF15
:1003F00000BF00BF00BF00BF00BF00BF00BF00BF05
:1004000000BF00BF00BF00BF00BF00BF00BF00BFF4
:1004100000BF00BF00BF00BF00BF00BF00BF00BFE4
:1004200000BF00BF00BF00BF00BF00BF00BF00BFD4
:1004300000BF00BF00BF00BF00BF00BF00BF00BFC4
:1004400000BF00BF00BF00BF00BF00BF00BF00BFB4
:1004500000BF00BF00BF00BF00BF00BF00BF00BFA4
:1004600000BF00BF00BF00BF00BF00BF00BF00BF94
:1004700000BF00BF00BF00BF00BF00BF00BF00BF84
:1004800000BF00BF00BF00BF00BF00BF00BF00BF74
:1004900000BF00BF00BF00BF00BF00BF00BF00BF64
:1004A00000BF00BF00BF00BF00BF00BF00BF00BF54
:1004B00000BF00BF00BF00BF00BF00BF00BF00BF44
:1004C00000BF00BF00BF00BF00BF00BF00BF00BF34
:1004D00000BF00BF00BF00BF00BF00BF00BF00BF24
:1004E00000BF00BF00BF00BF00BF00BF00BF00BF14
:1004F00000BF00BF00BF00BF00BF00BF00BF00BF04
:1005000000BF00BF00BF00BF00BF00BF00BF00BFF3
:1005100000BF00BF00BF00BF00BF00BF00BF00BFE3
:1005200000BF00BF00BF00BF00BF00BF00BF00BFD3
:1005300000BF00BF00BF00BF00BF00BF00BF00BFC3
:1005400000BF00BF00BF491CB1EB400FFFF426AF56
:10055000704738B50446002504E04FF47A706D1CEE
:10056000FFF71AFFA542F8D331BD10B5DFF8704789
:100570004FF4004020603220FFF7EBFF4FF00040C7
:10058000206010BD80B5FFF7F0FF6420FFF7E1FFAA
:10059000FFF7EBFF6420FFF7DCFFBDE80140E4E775
:1005A00038B500F011F805D128B100F00BF80020A3
:1005B000287000E008B10F2032BDFFE7012028704D
:1005C000204632BD1420C4E7DFF81807DFF81857BB
:1005D000006800F00F040F2C2878704710B5DFF882
:1005E0000C0700220168DFF8844441F01801016023
:1005F00000F033F92068000A00022060206840F013
:1006000055002060606940F00D006061A068000A3C
:100610000002A060A06840F05500A0604FF40020E8
:10062000A06108F04EFE0820A0617820FFF791FF3E
:100630000021022000F04BF90021032000F047F9CF
:100640000121042000F043F93F21052000F03FF98B
:100650000021062000F03BF90021072000F037F9C7
:100660000021082000F033F9EF21092000F02FF9D4
:100670000621012000F02BF96821162000F027F94F
:100680000021182000F023F96521702000F01FF9E7
:100690009521232000F01BF99521242000F017F963
:1006A000FF21252000F013F90221272000F00FF987
:1006B0000221282000F00BF90221292000F007F97F
:1006C00002212A2000F003F902212C2000F0FFF87B
:1006D00002212D2000F0FBF801213A2000F0F7F86C
:1006E00001213B2000F0F3F8F0213C2000F0EFF86E
:1006F00000213D2000F0EBF8FFF764FF38213520A2
:1007000000F0E5F87821362000F0E1F838213E20AD
:1007100000F0DDF80F21402000F0D9F8F021412051
:1007200000F0D5F84921192000F0D1F80F219320CD
:1007300000F0CDF808F0C2FD4021202000F0C7F8FD
:1007400007211D2000F0C3F808F0B8FD00211E208D
:1007500000F0BDF804211F2000F0B9F8402144202A
:1007600000F0B5F81221452000F0B1F808F0A6FD20
:1007700004211C2000F0ABF8FFF724FF8021432068
:1007800000F0A5F80520FFF7E4FE18211B2000F07B
:100790009EF800F060F810211B2000F098F800F09F
:1007A0005AF8A421462000F092F85321472000F087
:1007B0008EF81021482000F08AF85F21492000F0CF
:1007C00086F804214A2000F082F83F214B2000F0F7
:1007D0007EF802214C2000F07AF8F6214D2000F03E
:1007E00076F812214E2000F072F84C214F2000F0D4
:1007F0006EF84621502000F06AF84421512000F0A4
:1008000066F87F21902000F062F8042100F021F8C2
:1008100000F021F8242100F01CF82C2100F019F838
:1008200000F019F83C2100F014F80221572000F0E4
:100830004EF80021552000F04AF85A21FE2000F021
:1008400046F80021572000F042F80020BDE8104093
:1008500045E026203BE028207BE6DFF894044FF0BB
:10086000553101604261816070470000DFF88414F7
:100870004FF4C0220A60DFF8802410605FF48030FB
:10088000086000BF00BF00BF00BF00BF00BF00BFC7
:1008900000BF0120086000BF16E00000DFF854141C
:1008A000DFF858240A60DFF8502410605FF48030CD
:1008B000086000BF00BF00BF00BF00BF00BF00BF97
:1008C00000BF0120086000BF04200860704710B519
:1008D0000C46FFF7CBFF2046BDE81040DEE770B5C1
:1008E0000446002100204FF4A07500F009F8F0261E
:1008F0002046FFF7D3FF761EFAD16D1EF7D170BDEB
:10090000DFF8FC2338B5127804460D464C2A0CD18A
:10091000B4F5A07FB8BFF02D1CDA00F01CF800F091
:100920005FF800F061F829460EE0F02CB8BFB5F58D
:10093000A07F0FDA00F05BF8214600F053F8290A97
:1009400000F0AFF905F0FF0104F0A4FB2220BDE8A0
:1009500032408BE731BD210A0220B8E7DFF8A0233F
:10096000D07011717047DFF89823508291827047E0
:1009700070B51546DFF88823127806460C464C2AD7
:100980000FD1B6F5A07FB8BFF02C24DA310AFFF7FB
:10099000E3FF06F0FF0100F025F800F025F82146FE
:1009A0000EE0F02EB8BFB4F5A07F14DA00F01FF807
:1009B000314600F017F8210A00F073F904F0FF0146
:1009C00004F068FB40F62100854204D0294622202D
:1009D000BDE870407BE770BD50EF00E014ED00E033
:1009E00004F0FF01032072E7002106206FE70021D9
:1009F00002206CE7003C0240003802400836400903
:100A0000010001010070004010B5BD4CE070217183
:100A10006282A382029C01E000F02EF8207868B187
:100A200014F8010B8028F7DB14F8011B01EB002000
:100A300080B200F038F901F097FAEFE710BD00003E
:100A400002B440302038014000000240FFFF56A9A8
:100A5000000003FC0004024094A2AAA99977505513
:100A6000000802400015A94600660600001002407A
:100A70005555AA6A111155052DE9F047A149A04C19
:100A8000C0B0002301EB0011A28A668ACF5C00206F
:100A9000FD070DEB43154CBF25F8106025F810201D
:100AA0007F10401C0828F3DB5B1C082BEEDB0025C5
:100AB0004819077A00200DEB45135FEAC77C03EB6A
:100AC00040034CBF1E821A827F10401C0828F2DBB4
:100AD0006D1C082DECDB607A012847D10025238AA4
:100AE0004F1907F1010C485D9CF807609CF80890CD
:100AF00000EB062630044FEA504E9CF80000B0464A
:100B000000EB092917F8010C9CF806700DEB451C49
:100B100000EB072700205FEAC67A16D45FEACE7A98
:100B200048BF2CF810305FEAC87848BF2CF8103066
:100B30005FEAC97803D5072DB8BF2CF810305FEAFB
:100B4000C77802D50DB12CF81030B04636043F04FA
:100B5000760C7F0C401C0F284FEA09494FEA5E0EC5
:100B60004FEA5949D7DB6D1C082DB9DBE178637872
:100B70002079994208D30021801CE170A178C0B28D
:100B8000491E8842A8BF00202071207A012807D181
:100B900000250DEB45116D1CE089082DC883F8DB9D
:100BA000E179E078012904BF6379984202BF217995
:100BB000A379994208D10025A1890DEB45136D1C3D
:100BC000082D9983D983F8DB40F621018A4248D069
:100BD000C5000026207906EBC00720784C280AD1F2
:100BE000290AFFF7B9FE05F0FF01FFF7FBFEFFF74B
:100BF000FBFEB9B209E0FFF7FAFE2946FFF7F2FE65
:100C0000380400F04DF807F0FF0104F043FA222009
:100C1000FFF72CFE3DF81600FFF740FE684600EB9C
:100C20004607761C07F1200800F037F8B8F82000D6
:100C300007F16008FFF732FE00F02FF8B8F8200047
:100C400007F1A008FFF72AFE00F027F8B8F8200007
:100C5000FFF724FEB7F8E000FFF720FE102EB9DB07
:100C600015E0002600256846690100EB4600425A5F
:100C7000207906EBC00081B2E07805EBC0006D1C66
:100C800007F0C8FC082DEEDB761C102EEADBE078BE
:100C900040B0401CE070BDE8F087B8F80000FDE50A
:100CA000010E062013E6184941F65E02091891422A
:100CB00013D2010A5E2211FB02F151FA80F044F2D4
:100CC0004111401A80B20FF2440111F8102001EBDB
:100CD0004000407840EA0220704700207047000042
:100CE0001808024010080240D42C0020303802407E
:100CF000000C024018100240140C024002000400D4
:100D00002E040020E07D00085F4FFFFF88618862AD
:100D1000886588688869886A886B88718873887430
:100D200088758876887788788879887B887C887DBC
:100D30008881888288858889889188938895889613
:100D4000889788A188A288A588A988B588B788C10E
:100D500088C588C988E188E288E588E888E988EB61
:100D600088F188F388F588F688F788F888FB88FC8E
:100D700088FD894189458949895189538955895611
:100D800089578961896289638965896889698971F7
:100D90008973897589768977897B8981898589892C
:100DA0008993899589A189A289A589A889A989ABEF
:100DB00089AD89B089B189B389B589B789B889C145
:100DC00089C289C589C989CB89D189D389D589D770
:100DD00089E189E589E989F389F689F78A418A42B7
:100DE0008A458A498A518A538A558A578A618A650F
:100DF0008A698A738A758A818A828A858A888A89B9
:100E00008A8A8A8B8A908A918A938A958A978A9805
:100E10008AA18AA28AA58AA98AB68AB78AC18AD5EE
:100E20008AE18AE28AE58AE98AF18AF38AF58B41C6
:100E30008B458B498B618B628B658B688B698B6A69
:100E40008B718B738B758B778B818BA18BA28BA511
:100E50008BA88BA98BAB8BB18BB38BB58BB78BB8B6
:100E60008BBC8C618C628C638C658C698C6B8C7197
:100E70008C738C758C768C778C7B8C818C828C853A
:100E80008C898C918C938C958C968C978CA18CA250
:100E90008CA98CE18CE28CE38CE58CE98CF18CF3F1
:100EA0008CF58CF68CF78D418D428D458D518D558D
:100EB0008D578D618D658D698D758D768D7B8D815D
:100EC0008DA18DA28DA58DA78DA98DB18DB38DB569
:100ED0008DB78DB88DB98DC18DC28DC98DD68DD789
:100EE0008DE18DE28DF78E418E458E498E518E5368
:100EF0008E578E618E818E828E858E898E908E9198
:100F00008E938E958E978E988EA18EA98EB68EB763
:100F10008EC18EC28EC58EC98ED18ED38ED68EE1F5
:100F20008EE58EE98EF18EF38F418F618F628F6532
:100F30008F678F698F6B8F708F718F738F758F77BE
:100F40008F7B8FA18FA28FA58FA98FB18FB38FB504
:100F50008FB7906190629063906590689069906A95
:100F6000906B90719073907590769077907890795F
:100F7000907B907D908190829085908990919093C4
:100F800090959096909790A190A290A590A990B1DD
:100F900090B790E190E290E490E590E990EB90ECCE
:100FA00090F190F390F590F690F790FD9141914279
:100FB0009145914991519153915591569157916114
:100FC0009162916591699171917391769177917A1E
:100FD0009181918591A191A291A591A991AB91B196
:100FE00091B391B591B791BC91BD91C191C591C992
:100FF00091D6924192459249925192539255926163
:1010000092629265926992739275927792819282BE
:10101000928592889289929192939295929792A1B9
:1010200092B692C192E192E592E992F192F39341E4
:10103000934293499351935393579361936293656A
:101040009369936A936B9371937393759377937882
:10105000937C93819385938993A193A293A593A95C
:1010600093AB93B193B393B593B793BC94619462EC
:101070009463946594689469946A946B946C947086
:101080009471947394759476947794789479947D0C
:101090009481948294859489949194939495949650
:1010A000949794A194E194E294E394E594E894E90C
:1010B00094EB94EC94F194F394F594F794F994FCF4
:1010C0009541954295459549955195539555955618
:1010D00095579561956595699576957795819585EF
:1010E00095A195A295A595A895A995AB95AD95B116
:1010F00095B395B595B795B995BB95C195C595C966
:1011000095E195F696419645964996519653965592
:1011100096619681968296859689969196939695F4
:10112000969796A196B696C196D796E196E596E9DA
:1011300096F396F596F797419745974997519757A4
:1011400097619762976597689769976B977197739F
:1011500097759777978197A197A297A597A897A931
:1011600097B197B397B597B697B797B898619862C4
:101170009865986998719873987598769877987D1E
:10118000988198829885988998919893989598963F
:10119000989798E198E298E598E998EB98EC98F19F
:1011A00098F398F598F698F798FD994199429945E2
:1011B00099499951995399559956995799619976A1
:1011C00099A199A299A599A999B799C199C999E1A4
:1011D0009A419A459A819A829A859A899A909A9187
:1011E0009A979AC19AE19AE59AE99AF19AF39AF74D
:1011F0009B619B629B659B689B699B719B739B75C5
:101200009B819B859B899B919B939BA19BA59BA964
:101210009BB19BB39BB59BB79C619C629C659C6991
:101220009C719C739C759C769C779C789C7C9C7D27
:101230009C819C829C859C899C919C939C959C966E
:101240009C979CA19CA29CA59CB59CB79CE19CE210
:101250009CE59CE99CF19CF39CF59CF69CF79CFD1D
:101260009D419D429D459D499D519D539D559D5735
:101270009D619D629D659D699D719D739D759D7626
:101280009D779D819D859D939D959DA19DA29DA5E9
:101290009DA99DB19DB39DB59DB79DC19DC59DD790
:1012A0009DF69E419E459E499E519E539E559E573A
:1012B0009E619E659E699E739E759E779E819E82AD
:1012C0009E859E899E919E939E959E979EA19EB679
:1012D0009EC19EE19EE29EE59EE99EF19EF59EF7EF
:1012E0009F419F429F459F499F519F539F559F57A5
:1012F0009F619F629F659F699F719F739F759F7795
:101300009F789F7B9F7C9FA19FA29FA59FA99FB134
:101310009FB39FB59FB7A061A062A065A067A068BA
:10132000A069A06AA06BA071A073A075A077A07837
:10133000A07BA07DA081A082A085A089A091A09380
:10134000A095A096A097A098A0A1A0A2A0A9A0B7A0
:10135000A0E1A0E2A0E5A0E9A0EBA0F1A0F3A0F538
:10136000A0F7A0F8A0FDA141A142A145A149A1512A
:10137000A153A155A156A157A161A162A165A1697F
:10138000A175A176A177A179A181A1A1A1A2A1A412
:10139000A1A5A1A9A1ABA1B1A1B3A1B5A1B7A1C1BB
:1013A000A1C5A1D6A1D7A241A245A249A253A25547
:1013B000A257A261A265A269A273A275A281A282AC
:1013C000A283A285A288A289A28AA28BA291A293BB
:1013D000A295A297A29BA29DA2A1A2A5A2A9A2B3F7
:1013E000A2B5A2C1A2E1A2E5A2E9A341A345A349F6
:1013F000A351A355A361A365A369A371A375A3A179
:10140000A3A2A3A5A3A8A3A9A3ABA3B1A3B3A3B568
:10141000A3B6A3B7A3B9A3BBA461A462A463A46445
:10142000A465A468A469A46AA46BA46CA471A47341
:10143000A475A477A47BA481A482A485A489A49183
:10144000A493A495A496A497A49BA4A1A4A2A4A5A4
:10145000A4B3A4E1A4E2A4E5A4E8A4E9A4EBA4F164
:10146000A4F3A4F5A4F7A4F8A541A542A545A54871
:10147000A549A551A553A555A556A557A561A56292
:10148000A565A569A573A575A576A577A57BA58195
:10149000A585A5A1A5A2A5A3A5A5A5A9A5B1A5B307
:1014A000A5B5A5B7A5C1A5C5A5D6A5E1A5F6A64133
:1014B000A642A645A649A651A653A661A665A68141
:1014C000A682A685A688A689A68AA68BA691A6939B
:1014D000A695A697A69BA69CA6A1A6A9A6B6A6C1B8
:1014E000A6E1A6E2A6E5A6E9A6F7A741A745A74972
:1014F000A751A755A757A761A762A765A769A771B5
:10150000A773A775A7A1A7A2A7A5A7A9A7ABA7B1CE
:10151000A7B3A7B5A7B7A7B8A7B9A861A862A865D8
:10152000A869A86BA871A873A875A876A877A87DE4
:10153000A881A882A885A889A891A893A895A8960B
:10154000A897A8A1A8A2A8B1A8E1A8E2A8E5A8E840
:10155000A8E9A8F1A8F5A8F6A8F7A941A957A96193
:10156000A962A971A973A975A976A977A9A1A9A248
:10157000A9A5A9A9A9B1A9B3A9B7AA41AA61AA779E
:10158000AA81AA82AA85AA89AA91AA95AA97AB41FB
:10159000AB57AB61AB65AB69AB71AB73ABA1ABA246
:1015A000ABA5ABA9ABB1ABB3ABB5ABB7AC61AC6200
:1015B000AC64AC65AC68AC69AC6AAC6BAC71AC7378
:1015C000AC75AC76AC77AC7BAC81AC82AC85AC89CD
:1015D000AC91AC93AC95AC96AC97ACA1ACA2ACA5DD
:1015E000ACA9ACB1ACB3ACB5ACB7ACC1ACC5ACC9D3
:1015F000ACD1ACD7ACE1ACE2ACE3ACE4ACE5ACE88C
:10160000ACE9ACEBACECACF1ACF3ACF5ACF6ACF7F4
:10161000ACFCAD41AD42AD45AD49AD51AD53AD555D
:10162000AD56AD57AD61AD62AD65AD69AD71AD7330
:10163000AD75AD76AD77AD81AD85AD89AD97ADA119
:10164000ADA2ADA3ADA5ADA9ADABADB1ADB3ADB5DB
:10165000ADB7ADBBADC1ADC2ADC5ADC9ADD7ADE1E7
:10166000ADE5ADE9ADF1ADF5ADF6AE41AE45AE4996
:10167000AE51AE53AE55AE61AE62AE65AE69AE71FF
:10168000AE73AE75AE77AE81AE82AE85AE88AE89F2
:10169000AE91AE93AE95AE97AE99AE9BAE9CAEA119
:1016A000AEB6AEC1AEC2AEC5AEC9AED1AED7AEE17A
:1016B000AEE2AEE5AEE9AEF1AEF3AEF5AEF7AF41F8
:1016C000AF42AF49AF51AF55AF57AF61AF62AF65F2
:1016D000AF69AF6AAF71AF73AF75AF77AFA1AFA2AC
:1016E000AFA5AFA8AFA9AFB0AFB1AFB3AFB5AFB70C
:1016F000AFBCB061B062B064B065B069B071B073D6
:10170000B076B077B07DB081B082B085B089B0914D
:10171000B093B096B097B0B7B0E1B0E2B0E5B0E941
:10172000B0EBB0F1B0F3B0F6B0F7B141B145B149AB
:10173000B157B1A1B1A2B1A5B1A8B1A9B1ABB1B135
:10174000B1B3B1B7B1C1B1C2B1C5B1D6B1E1B1F6B2
:10175000B241B245B249B251B253B261B281B28222
:10176000B285B289B291B293B297B2A1B2B6B2C108
:10177000B2E1B2E5B357B361B362B365B369B36BBA
:10178000B370B371B373B381B385B389B391B3A1AC
:10179000B3A2B3A5B3A9B3B1B3B3B3B5B3B7B4618F
:1017A000B462B465B466B467B469B46AB46BB47057
:1017B000B471B473B475B476B477B47BB47CB481CB
:1017C000B482B485B489B491B493B495B496B49703
:1017D000B4A1B4A2B4A5B4A9B4ACB4B1B4B3B4B513
:1017E000B4B7B4BBB4BDB4C1B4C5B4C9B4D3B4E127
:1017F000B4E2B4E5B4E6B4E8B4E9B4EAB4EBB4F105
:10180000B4F3B4F4B4F5B4F6B4F7B4F8B4FAB4FC81
:10181000B541B542B545B549B551B553B555B557BF
:10182000B561B562B563B565B569B56BB56CB571D4
:10183000B573B574B575B576B577B57BB57CB57D43
:10184000B581B585B589B591B593B595B596B5A171
:10185000B5A2B5A5B5A9B5AAB5ABB5ADB5B0B5B18D
:10186000B5B3B5B5B5B7B5B9B5C1B5C2B5C5B5C9E7
:10187000B5D1B5D3B5D5B5D6B5D7B5E1B5E2B5E5F2
:10188000B5F1B5F5B5F7B641B642B645B649B6516C
:10189000B653B655B657B661B662B665B669B67197
:1018A000B673B675B677B681B682B685B689B68A8E
:1018B000B68BB691B693B695B697B6A1B6A2B6A5B5
:1018C000B6A9B6B1B6B3B6B6B6B7B6C1B6C2B6C5A6
:1018D000B6C9B6D1B6D3B6D7B6E1B6E2B6E5B6E983
:1018E000B6F1B6F3B6F5B6F7B741B742B745B74963
:1018F000B751B753B755B757B759B761B762B7655F
:10190000B769B76FB771B773B775B777B778B77986
:10191000B77AB77BB77CB77DB781B785B789B79101
:10192000B795B7A1B7A2B7A5B7A9B7AAB7ABB7B0D4
:10193000B7B1B7B3B7B5B7B6B7B7B7B8B7BCB86193
:10194000B862B865B867B868B869B86BB871B87389
:10195000B875B876B877B878B881B882B885B889DC
:10196000B891B893B895B896B897B8A1B8A2B8A5E9
:10197000B8A7B8A9B8B1B8B7B8C1B8C5B8C9B8E1BF
:10198000B8E2B8E5B8E9B8EBB8F1B8F3B8F5B8F72C
:10199000B8F8B941B942B945B949B951B953B9557E
:1019A000B957B961B965B969B971B973B976B97718
:1019B000B981B9A1B9A2B9A5B9A9B9ABB9B1B9B33E
:1019C000B9B5B9B7B9B8B9B9B9BDB9C1B9C2B9C969
:1019D000B9D3B9D5B9D7B9E1B9F6B9F7BA41BA456A
:1019E000BA49BA51BA53BA55BA57BA61BA62BA6566
:1019F000BA77BA81BA82BA85BA89BA8ABA8BBA91E9
:101A0000BA93BA95BA97BAA1BAB6BAC1BAE1BAE26C
:101A1000BAE5BAE9BAF1BAF3BAF5BB41BB45BB497D
:101A2000BB51BB61BB62BB65BB69BB71BB73BB75A3
:101A3000BB77BBA1BBA2BBA5BBA8BBA9BBABBBB1C2
:101A4000BBB3BBB5BBB7BBB8BBBBBBBCBC61BC62AB
:101A5000BC65BC67BC69BC6CBC71BC73BC75BC7636
:101A6000BC77BC81BC82BC85BC89BC91BC93BC9555
:101A7000BC96BC97BCA1BCA5BCB7BCE1BCE2BCE5B4
:101A8000BCE9BCF1BCF3BCF5BCF6BCF7BD41BD572D
:101A9000BD61BD76BDA1BDA2BDA5BDA9BDB1BDB392
:101AA000BDB5BDB7BDB9BDC1BDC2BDC9BDD6BDE126
:101AB000BDF6BE41BE45BE49BE51BE53BE77BE81D6
:101AC000BE82BE85BE89BE91BE93BE97BEA1BEB684
:101AD000BEB7BEE1BF41BF61BF71BF75BF77BFA1D8
:101AE000BFA2BFA5BFA9BFB1BFB3BFB7BFB8BFBD7E
:101AF000C061C062C065C067C069C071C073C07595
:101B0000C076C077C078C081C082C085C089C091CE
:101B1000C093C095C096C097C0A1C0A5C0A7C0A9DA
:101B2000C0B1C0B7C0E1C0E2C0E5C0E9C0F1C0F3D8
:101B3000C0F5C0F6C0F7C141C142C145C149C1515C
:101B4000C153C155C157C161C165C176C181C1854C
:101B5000C197C1A1C1A2C1A5C1A9C1B1C1B3C1B53C
:101B6000C1B7C1C1C1C5C1C9C1D7C241C245C249BE
:101B7000C251C253C255C257C261C271C281C28230
:101B8000C285C289C291C293C295C297C2A1C2B690
:101B9000C2C1C2C5C2E1C2E5C2E9C2F1C2F3C2F527
:101BA000C2F7C341C345C349C351C357C361C362ED
:101BB000C365C369C371C373C375C377C3A1C3A22C
:101BC000C3A5C3A8C3A9C3AAC3B1C3B3C3B5C3B78D
:101BD000C461C462C465C469C471C473C475C47784
:101BE000C481C482C485C489C491C493C495C49675
:101BF000C497C4A1C4A2C4B7C4E1C4E2C4E5C4E8A4
:101C0000C4E9C4F1C4F3C4F5C4F6C4F7C541C54280
:101C1000C545C549C551C553C555C557C561C565F8
:101C2000C569C571C573C575C576C577C581C5A1BB
:101C3000C5A2C5A5C5A9C5B1C5B3C5B5C5B7C5C1FB
:101C4000C5C2C5C5C5C9C5D1C5D7C5E1C5F7C6415A
:101C5000C649C661C681C682C685C689C691C69375
:101C6000C695C697C6A1C6A5C6A9C6B7C6C1C6D7DA
:101C7000C6E1C6E2C6E5C6E9C6F1C6F3C6F5C6F7D3
:101C8000C741C745C749C751C761C762C765C7696B
:101C9000C771C773C777C7A1C7A2C7A5C7A9C7B16F
:101CA000C7B3C7B5C7B7C861C862C865C869C86ADD
:101CB000C871C873C875C876C877C881C882C88516
:101CC000C889C891C893C895C896C897C8A1C8B70D
:101CD000C8E1C8E2C8E5C8E9C8EBC8F1C8F3C8F56F
:101CE000C8F6C8F7C941C942C945C949C951C9530C
:101CF000C955C957C961C965C976C981C985C9A10D
:101D0000C9A2C9A5C9A9C9B1C9B3C9B5C9B7C9BC0F
:101D1000C9C1C9C5C9E1CA41CA45CA55CA57CA617C
:101D2000CA81CA82CA85CA89CA91CA93CA95CA9702
:101D3000CAA1CAB6CAC1CAE1CAE2CAE5CAE9CAF1B9
:101D4000CAF3CAF7CB41CB45CB49CB51CB57CB617B
:101D5000CB62CB65CB68CB69CB6BCB71CB73CB75CF
:101D6000CB81CB85CB89CB91CB93CBA1CBA2CBA580
:101D7000CBA9CBB1CBB3CBB5CBB7CC61CC62CC6369
:101D8000CC65CC69CC6BCC71CC73CC75CC76CC7774
:101D9000CC7BCC81CC82CC85CC89CC91CC93CC959E
:101DA000CC96CC97CCA1CCA2CCE1CCE2CCE5CCE9D2
:101DB000CCF1CCF3CCF5CCF6CCF7CD41CD42CD4532
:101DC000CD49CD51CD53CD55CD57CD61CD65CD69E3
:101DD000CD71CD73CD76CD77CD81CD89CD93CD9598
:101DE000CDA1CDA2CDA5CDA9CDB1CDB3CDB5CDB72A
:101DF000CDC1CDD7CE41CE45CE61CE65CE69CE73B5
:101E0000CE75CE81CE82CE85CE88CE89CE8BCE9138
:101E1000CE93CE95CE97CEA1CEB7CEE1CEE5CEE98C
:101E2000CEF1CEF5CF41CF45CF49CF51CF55CF578A
:101E3000CF61CF65CF69CF71CF73CF75CFA1CFA25F
:101E4000CFA5CFA9CFB1CFB3CFB5CFB7D061D06237
:101E5000D065D069D06ED071D073D075D077D08175
:101E6000D082D085D089D091D093D095D096D0977C
:101E7000D0A1D0B7D0E1D0E2D0E5D0E9D0EBD0F11D
:101E8000D0F3D0F5D0F7D141D142D145D149D1518C
:101E9000D153D155D157D161D162D165D169D171B9
:101EA000D173D175D176D177D181D185D189D193B3
:101EB000D1A1D1A2D1A5D1A9D1AED1B1D1B3D1B542
:101EC000D1B7D1BBD1C1D1C2D1C5D1C9D1D5D1D75B
:101ED000D1E1D1E2D1E5D1F5D1F7D241D242D2451B
:101EE000D249D253D255D257D261D265D269D27378
:101EF000D275D281D282D285D289D28ED291D29518
:101F0000D297D2A1D2A5D2A9D2B1D2B7D2C1D2C2D0
:101F1000D2C5D2C9D2D7D2E1D2E2D2E5D2E9D2F14A
:101F2000D2F3D2F5D2F7D341D342D345D349D351DB
:101F3000D355D357D361D362D365D367D368D369FD
:101F4000D36AD371D373D375D377D37BD381D3853E
:101F5000D389D391D393D397D3A1D3A2D3A5D3A914
:101F6000D3B1D3B3D3B5D3B72DE9F04FADF5097DD8
:101F7000044601A8202107F057FC0FF26830C4F393
:101F80008421405C0FF27431C4F344124FF0000816
:101F90008E5C0FF2883104F01F02895C009149B910
:101FA00000250FF298310128895D1ABF10281624E8
:101FB00000240EE0012501280FF298320FF2AC3117
:101FC000925D895D16BF10282C2442241C2312FB2D
:101FD00003F81422C04F12FB010097F80A900FF289
:101FE000A43ADFF8F8B20004B9F14D0F03D1202272
:101FF0000BEBD0210DE0B9F1470F03D120220AEB02
:10200000D02106E0B9F1500F06D1B549202201EBED
:10201000D02101A807F00CFC3019A0300004C20A3E
:10202000B9F14D0F01A902D103F042F80AE0B9F16C
:10203000470F02D103F031F804E0B9F1500F01D19C
:1020400003F041F8ADB100984044F8300004C20AF2
:10205000B9F14D0F02D103F02BF80AE0B9F1470FA7
:1020600002D103F01AF804E0B9F1500F01D103F0E6
:102070002AF80024BA8A7B8A11F8048000205FEADB
:10208000C87509AD05EB44154FEA68084CBF25F843
:10209000103025F81020401C0828F0DB641C102CA0
:1020A000EADB002401A8204490F81080002009AE4B
:1020B0005FEAC87506EB44164FEA680806EB40066F
:1020C0004CBF33823282401C0828F0DB641C102C89
:1020D000E8DB787A01284BD100243B8A01A8061955
:1020E000085D06F1010C9CF80F509CF8109000EB75
:1020F00005284FEA08404FEA504E9CF8000045463C
:1021000000EB092916F8010C9CF80E600DF1240C67
:102110000CEB441C00EB062600205FEAC87A14D4BE
:102120005FEACE7A48BF2CF81030ED0748BF2CF894
:1021300010305FEAC97503D50F2CB8BF2CF81030EA
:10214000F50702D50CB12CF810303604760C401C83
:10215000454610284FEA08484FEA09494FEA5E0E03
:102160004FEA58484FEA5949D7DB641C102CB5DBBD
:102170007B78F97838795B1E994208DB0021801C56
:10218000F970B978C0B2491E8842A8BF00203871E2
:10219000387A012808D1002409A9F88901EB4411F3
:1021A000641C102CC883F7DBF979F878012904BF87
:1021B0007B79984202BF3979BB79994209D10024D1
:1021C000B98909AB03EB4413641C102C9983D983A0
:1021D000F7DB40F621018A425ED0C4004FF00008D0
:1021E000387908EBC00638784C2807D1FEF7B3FBE6
:1021F000FEF7F6FBFEF7F8FBB1B209E0FEF7F7FBDE
:102200002146FEF7EFFB3004FEF74AFD06F0FF0122
:1022100002F040FF2220FEF729FB09A830F8180041
:10222000FEF73CFB09A800EB480608F1010806F19F
:10223000200502F02BFF288C06F16005FEF72EFB2F
:1022400002F024FF288C06F1A005FEF727FB02F020
:102250001DFF288C06F1E005FEF720FB02F016FFBB
:1022600002F010FF4FF4907002F00FFF02F00AFF2F
:102270004FF4B07002F009FF02F004FF4FF4D07089
:1022800002F003FF02F0FEFEB6F8E001FEF706FBE7
:10229000B8F1100FA4DB18E04FF00008002409A8E3
:1022A000610100EB4800425A387908EBC00081B266
:1022B000F87804EBC000641C06F0ACF9102CEEDBDF
:1022C00008F10108B8F1100FE8DBF8780DF5097D89
:1022D000801CF870BDE8F08F2E040020DC98000808
:1022E000E050000800000102030405060708090A7F
:1022F0000B0C0D0E0F101112130000000000000156
:10230000020304050000060708090A0B00000C0D73
:102310000E0F10110000121314150000000001022E
:10232000030405060708090A0B0C0D0E0F10001117
:1023300012131415161718191A1B000000000000BC
:102340000000000000010303030102040404020171
:10235000030000000000020002010201020300026B
:10236000010303010201030301010000000505054B
:1023700005050505050607070706060707070606FC
:102380000705000000000000000000000000000041
:10239000000000000000000000000000000000003D
:1023A00000000000000002020282C27E3E00000027
:1023B0000000000000000202010100000000000017
:1023C0000000000000000202FEFE02FEFE0000000F
:1023D00000000000000002030102030100000000F1
:1023E000000000000000FEFE0000000000000000F1
:1023F00000000000000003030202020202000000CD
:10240000000000000000FEFE0202020202000000C6
:1024100000000000000003030202020202000000AC
:10242000000000000000FEFE02FEFE0202000000AE
:10243000000000000000030302030302020000008A
:10244000000000000000E2E22222223E3E000000E6
:10245000000000000000030302020202020000006C
:10246000000000000000FEFE020202FEFE0000006E
:10247000000000000000030302020203030000004A
:10248000000000000000FEFE202020FEFE000000F4
:10249000000000000000030302020203030000002A
:1024A0000000000000FEFE20FEFE20FEFE000000F8
:1024B0000000000000030302030302030300000006
:1024C00000000000000080C07E7EC0800000000090
:1024D00000000000000101000000000101000000F8
:1024E00000000000000080FE7E80FEFE80000000F4
:1024F00000000000000101000101000001010000D6
:102500000000000000F8FC06020206FCF8000000D3
:1025100000000000000001030202030100000000AF
:1025200000000000000282C27E7EC2820200000023
:102530000000000000010100000000010100000097
:1025400000000000000282FE7E82FEFE8202000089
:102550000000000000010100010100000101000075
:1025600000000000000484C47E7EC48404000000D7
:102570000000000000010100000000010100000057
:1025800000000000000012121292D27E3E000000F5
:102590000000000000000202010100000000000035
:1025A000000000000000FEFE2222220202000000C5
:1025B000000000000000030302020202020000000B
:1025C000000000000002FEFE0202FEFE020000000B
:1025D00000000000000203030202030302000000E7
:1025E0000000000004F4FC0E0E0EFCF404000000D9
:1025F00000000000000001010101010000000000D6
:1026000000000000000000000000000000000000CA
:1026100000000000000000000000000000000000BA
:10262000000000000000000202020202020282FE1C
:102630007E0000000000000000000000000000001C
:1026400000000000000000020282FE7E020282FE04
:102650007E000000000000000000000000000000FC
:1026600000000000000000FEFE80808080808080EE
:1026700080000000000000000000000000000000DA
:1026800000000000000000FEFE82828282828282C0
:1026900082000000000000000000000000000000B8
:1026A00000000000000000FEFE828282FEFE8282A8
:1026B0008200000000000000000000000000000098
:1026C00000000000000000F2F29292929292929E1C
:1026D0009E0000000000000000000000000000005C
:1026E00000000000000000FEFE828282828282FEE4
:1026F000FE000000000000000000000000000000DC
:1027000000000000000000FEFE909090909090FE6F
:10271000FE000000000000000000000000000000BB
:1027200000000000000000FEFE9090FEFE9090FE73
:10273000FE0000000000000000000000000000009B
:1027400000000000000000406030180E0E183060DD
:102750004000000000000000000000000000000039
:102760000000000000004060301E5E70301E1E3011
:1027700060400000000000000000000000000000B9
:1027800000000000000000387CC682828282C67C85
:102790003800000000000000000000000000000001
:1027A0000000000000000082C262321E1E3262C2BF
:1027B0008200000000000000000000000000000097
:1027C0000000000000004262321E5E72321E1E32A5
:1027D0006242000000000000000000000000000055
:1027E0000000000000000084C464341E1E3464C471
:1027F0008400000000000000000000000000000055
:10280000000000000000001212121212121292FEBA
:102810007E0000000000000000000000000000003A
:1028200000000000000000FEFE92929292929292AE
:102830009200000000000000000000000000000006
:10284000000000000000008282FEFE8282FEFE8206
:1028500082000000000000000000000000000000F6
:10286000000000000000000474FC8C8E8E8CFC7450
:102870000400000000000000000000000000000054
:102880000000000000000000000000000000000048
:102890000000000000000000000000000000000038
:1028A000000000000000000202020202020282FE9A
:1028B0007E0000000000000000000000000000009A
:1028C00000000000000000020282FE7E020282FE82
:1028D0007E0000000000000000000000000000007A
:1028E000000000000000003E3E202020202020208C
:1028F00020000000000000000000000000000000B8
:10290000000000000000003E3E222222222222225D
:102910002200000000000000000000000000000095
:10292000000000000000003E3E2222223E3E222205
:102930002200000000000000000000000000000075
:10294000000000000000003A3A2A2A2A2A2A2A2EE9
:102950002E00000000000000000000000000000049
:10296000000000000000003E3E2222222222223EE1
:102970003E00000000000000000000000000000019
:10298000000000000000007E7E4848484848487E1D
:102990007E000000000000000000000000000000B9
:1029A000000000000000007E7E48487E7E48487E91
:1029B0007E00000000000000000000000000000099
:1029C000000000000000002030180C06060C183033
:1029D00020000000000000000000000000000000D7
:1029E0000000000000002030180E2E38180E0E18BF
:1029F0003020000000000000000000000000000087
:102A000000000000000000183C6642424242663C62
:102A1000180000000000000000000000000000009E
:102A2000000000000000004262321A0E0E1A3262EC
:102A30004200000000000000000000000000000054
:102A40000000000000004262321E5E72321E1E3222
:102A500062420000000000000000000000000000D2
:102A6000000000000000004464341C0E0E1C34649E
:102A70004400000000000000000000000000000012
:102A8000000000000000001212121212121292FE38
:102A90007E000000000000000000000000000000B8
:102AA000000000000000003E3E2A2A2A2A2A2A2A84
:102AB0002A000000000000000000000000000000EC
:102AC0000000000000000022223E3E22223E3E2264
:102AD00022000000000000000000000000000000D4
:102AE0000000000000000004347C4C4E4E4C7C344E
:102AF00004000000000000000000000000000000D2
:102B000000000000000000000000000000000000C5
:102B100000000000000000000000000000000000B5
:102B20000000000000000202020202FEFE0000009F
:102B30000000000000000000000001010000000093
:102B40000000000000000282FE7E82FE7E00000087
:102B50000000000000000000000000000000000075
:102B6000000000000000FEFE8080808080000000E9
:102B70000000000000000000000000000000000055
:102B8000000000000000FEFE8282828282000000BF
:102B90000000000000000000000000000000000035
:102BA000000000000000FEFE82FEFE8282000000A7
:102BB0000000000000000000000000000000000015
:102BC000000000000000F2F29292929E9E0000002F
:102BD00000000000000000000000000000000000F5
:102BE000000000000000FEFE828282FEFE00000067
:102BF00000000000000000000000000000000000D5
:102C0000000000000000FEFE909090FEFE0000001C
:102C100000000000000000000000000000000000B4
:102C20000000000000FEFE90FEFE90FEFE00000090
:102C30000000000000040000000000000000000090
:102C400000000000004060301E1E306040000000A8
:102C50000000000000040000000000000000000070
:102C6000000000000080C07EBEC07E7EC0800000EC
:102C70000000000000040000000000000000000050
:102C80000000000000387CC68282C67C380000004C
:102C90000000000000040000000000000000000030
:102CA00000000000004262321E1E3262420000003C
:102CB0000000000000040000000000000000000010
:102CC000000000000082C27EBEC27E7EC282000082
:102CD00000000000000400000000000000000000F0
:102CE000000000000084C4643E3E64C48400000010
:102CF00000000000000400000000000000000000D0
:102D00000000000000001212121212FEFE0000006D
:102D100000000000000000000000010100000000B1
:102D2000000000000000FEFE9292929292000000CD
:102D30000000000000000000000000000000000093
:102D400000000000000082FEFE82FEFE8200000005
:102D50000000000000000000000000000000000073
:102D600000000000000474FC8E8EFC74040000005F
:102D7000000000000004000000000000000000004F
:102D80000000000000000000000000000000000043
:102D90000000000000000000000000000000000033
:102DA00000000000000002020202427E3E0000001D
:102DB0000000000000000000000000000000000013
:102DC00000000000000002427E3E427E3E00000005
:102DD00000000000000000000000000000000000F3
:102DE0000000000000003E3E2020202020000000C7
:102DF00000000000000000000000000000000000D3
:102E00000000000000003E3E22222222220000009C
:102E100000000000000000000000000000000000B2
:102E20000000000000003E3E223E3E222200000044
:102E30000000000000000000000000000000000092
:102E40000000000000003A3A2A2A2A2E2E00000034
:102E50000000000000000000000000000000000072
:102E60000000000000003E3E2222223E3E00000004
:102E70000000000000000000000000000000000052
:102E80000000000000007E7E4848487E7E00000072
:102E90000000000000000000000000000000000032
:102EA00000000000007E7E487E7E487E7E0000009E
:102EB0000000000000010000000000000000000011
:102EC00000000000002030180E0E18302000000016
:102ED00000000000000100000000000000000000F1
:102EE000000000000020301E2E301E1E302000008A
:102EF00000000000000100000000000000000000D1
:102F00000000000000183C664242663C18000000C9
:102F100000000000000100000000000000000000B0
:102F200000000000004262321E1E326242000000B9
:102F30000000000000010000000000000000000090
:102F4000000000000022321E2E321E1E322200001F
:102F50000000000000010000000000000000000070
:102F600000000000004464341E1E3464440000006D
:102F70000000000000010000000000000000000050
:102F800000000000000012121212527E3E000000EB
:102F90000000000000000000000000000000000031
:102FA0000000000000003E3E2A2A2A2A2A000000D3
:102FB0000000000000000000000000000000000011
:102FC000000000000000223E3E223E3E22000000A3
:102FD00000000000000000000000000000000000F1
:102FE000000000000004347C4E4E7C3404000000DD
:102FF00000000000000100000000000000000000D0
:1030000000000000000000000000000000000000C0
:1030100000000000000000000000000000000000B0
:10302000000000000000020282C2623E1E0000009A
:10303000000000000000010100000000000000008E
:1030400000000000000082C27EBEC27E3E00000082
:103050000000000000000000000000000000000070
:10306000000000000000FEFE8080808080000000E4
:103070000000000000000000000000000000000050
:10308000000000000000FEFE8282828282000000BA
:103090000000000000000000000000000000000030
:1030A000000000000000FEFE82FEFE8282000000A2
:1030B0000000000000000000000000000000000010
:1030C000000000000000F2F29292929E9E0000002A
:1030D00000000000000000000000000000000000F0
:1030E000000000000000FEFE828282FEFE00000062
:1030F00000000000000000000000000000000000D0
:10310000000000000000FEFE909090FEFE00000017
:1031100000000000000000000000000000000000AF
:103120000000000000FEFE90FEFE90FEFE0000008B
:10313000000000000000000000000000000000008F
:10314000000000000080C0603E3E60C080000000C3
:10315000000000000000000000000000000000006F
:10316000000000000040603E5E603E3E60400000A7
:10317000000000000000000000000000000000004F
:103180000000000000387CC68282C67C3800000047
:10319000000000000000000000000000000000002F
:1031A000000000000082C2623E3E62C28200000057
:1031B000000000000000000000000000000000000F
:1031C000000000000082C27EBEC27E7EC28200007D
:1031D00000000000000000000000000000000000EF
:1031E000000000000084C4643E3E64C4840000000B
:1031F00000000000000000000000000000000000CF
:10320000000000000000121292D2723E1E00000068
:1032100000000000000001010000000000000000AC
:10322000000000000000FEFE9292929282000000D8
:10323000000000000000000000000000000000008E
:10324000000000000082FEFE8282FEFE820000007E
:10325000000000000000000000000000000000006E
:1032600000000000000474FC8E8EFC74040000005A
:10327000000000000000000000000000000000004E
:10328000000000000000000000000000000000003E
:10329000000000000000000000000000000000002E
:1032A0000000000000000002020202020202223EB0
:1032B0001E000000000000000000000000000000F0
:1032C000000000000000000202223E1E0202223E18
:1032D0001E000000000000000000000000000000D0
:1032E000000000000000003E3E2020202020202082
:1032F00020000000000000000000000000000000AE
:10330000000000000000003E3E2222222222222253
:10331000220000000000000000000000000000008B
:10332000000000000000003E3E2222223E3E2222FB
:10333000220000000000000000000000000000006B
:10334000000000000000003A3A2A2A2A2A2A2A2EDF
:103350002E0000000000000000000000000000003F
:10336000000000000000003E3E2222222222223ED7
:103370003E0000000000000000000000000000000F
:10338000000000000000003E3E2828282828283E93
:103390003E000000000000000000000000000000EF
:1033A000000000000000003E3E28283E3E28283E47
:1033B0003E000000000000000000000000000000CF
:1033C000000000000000002030180C06060C183029
:1033D00020000000000000000000000000000000CD
:1033E0000000000000002030180E2E38180E0E18B5
:1033F000302000000000000000000000000000007D
:10340000000000000000001C3E2222222222223E58
:103410001C00000000000000000000000000000090
:103420000000000000000022321A0E06060E1A32BA
:10343000220000000000000000000000000000006A
:1034400000000000000022321A0E2E3A1A0E0E1A48
:103450003222000000000000000000000000000018
:103460000000000000000024341C0C06060C1C3474
:103470002400000000000000000000000000000028
:10348000000000000000000A0A0A0A0A0A0A2A3E8E
:103490001E0000000000000000000000000000000E
:1034A000000000000000003E3E2A2A2A2A2A2A2A7A
:1034B0002A000000000000000000000000000000E2
:1034C0000000000000000022223E3E22223E3E225A
:1034D00022000000000000000000000000000000CA
:1034E00000000000000000143C2C2C2E2E2C2C3C44
:1034F00014000000000000000000000000000000B8
:1035000000000000000000000000000000000000BB
:1035100000000000000000000000000000000000AB
:1035200000000000000002020202223E1E00000015
:10353000000000000000000000000000000000008B
:1035400000000000000002223E1E223E1E0000007D
:10355000000000000000000000000000000000006B
:103560000000000000003E3E20202020200000003F
:10357000000000000000000000000000000000004B
:103580000000000000003E3E222222222200000015
:10359000000000000000000000000000000000002B
:1035A0000000000000003E3E223E3E2222000000BD
:1035B000000000000000000000000000000000000B
:1035C0000000000000003A3A2A2A2A2E2E000000AD
:1035D00000000000000000000000000000000000EB
:1035E0000000000000003E3E2222223E3E0000007D
:1035F00000000000000000000000000000000000CB
:103600000000000000003E3E2828283E3E0000004A
:1036100000000000000000000000000000000000AA
:1036200000000000003E3E283E3E283E3E000000D6
:10363000000000000000000000000000000000008A
:103640000000000000002030180E0E18302000008E
:10365000000000000000000000000000000000006A
:10366000000000000020301E2E301E1E3020000002
:10367000000000000000000000000000000000004A
:103680000000000000001C3E2222223E1C00000020
:10369000000000000000000000000000000000002A
:1036A00000000000000022321A0E0E1A3222000022
:1036B000000000000000000000000000000000000A
:1036C000000000000022321E2E321E1E3222000098
:1036D00000000000000000000000000000000000EA
:1036E00000000000000024341C0E0E1C34240000D6
:1036F00000000000000000000000000000000000CA
:103700000000000000000A0A0A0A2A3E1E0000000B
:1037100000000000000000000000000000000000A9
:103720000000000000003E3E2A2A2A2A2A0000004B
:103730000000000000000000000000000000000089
:10374000000000000000223E3E223E3E220000001B
:103750000000000000000000000000000000000069
:10376000000000000000143C2E2E2E3C140000002F
:103770000000000000000000000000000000000049
:103780000000000000000000000000000000000039
:103790000000000000000000000000000000000029
:1037A000000000000000000000000000000000FE1B
:1037B000FE10100000000000000000000000003FAC
:1037C0003F00000000000000000000000000FEFEBE
:1037D00010FEFE00000000000000000000003F3F5F
:1037E000003F3F000000000000000000000000FE5D
:1037F000FE90900000000000000000000000003F6C
:103800003F00000000000000000000000000FEFE7D
:1038100090FEFE00000000000000000000003F3F9E
:10382000003F3F000000000000000000202020FEBC
:10383000FE00000000000000000000000000003F4B
:103840003F00000000000000000000002020FEFEFD
:1038500000FEFE00000000000000000000003F3FEE
:10386000003F3F000000000000000080809090FEBC
:10387000FE00000000000000000000000000003F0B
:103880003F00000000000000000000808090FEFE6D
:1038900000FEFE00000000000000000000003F3FAE
:1038A000003F3F000000000000008080000000009A
:1038B000000000000000080808080F0F08080808AA
:1038C0000808000000000000C0C00000000000FE6A
:1038D000FE10100000000404070704040404003F65
:1038E0003F00000000000000C0C000000000FEFE1D
:1038F00010FEFE00000004040707040404043F3F18
:10390000003F3F0000000000C0C00000000000FEBB
:10391000FE00000000000404070704040404003F44
:103920003F00000000000000808000000080800058
:1039300000000000000008080F0F0808080F0F081B
:103940000808000000000000000000000000000067
:1039500000000000000001010101013F3F010101E1
:10396000010100000000000000000000000000FE57
:10397000FE000000000001011F1F01010505043FBA
:103980003F00000000000000000000000000FEFEFC
:1039900000FEFE00000001011F1F010505053F3F5D
:1039A000003F3F000000000000000000000000FE9B
:1039B000FE000000000001011F1F01010101003F86
:1039C0003F000000000000000000000000000000B8
:1039D0000000000000000101013F3F01013F3F01E5
:1039E00001010000000000000000000000000000D5
:1039F0000000000000000808080808080808080877
:103A0000080800000000000000000000000000FEA8
:103A1000FE00000000000404040404040404003F49
:103A20003F0000000000000000000000000000FE59
:103A3000FE00000000000000000000000000003F49
:103A40003F00000000000000000000000000000037
:103A50000000000000000000000000000000000066
:103A6000000000000000000000000000000000FE58
:103A7000FE10100000000000000000000000003FE9
:103A80003F00000000000000000000000000FEFEFB
:103A900010FEFE00000000000000000000003F3F9C
:103AA000003F3F000000000000000000000000FE9A
:103AB000FE90900000000000000000000000003FA9
:103AC0003F00000000000000000000000000FEFEBB
:103AD00090FEFE00000000000000000000003F3FDC
:103AE000003F3F000000000000000000202020FEFA
:103AF000FE00000000000000000000000000003F89
:103B00003F00000000000000000000002020FEFE3A
:103B100000FEFE00000000000000000000003F3F2B
:103B2000003F3F000000000000000000909090FE69
:103B3000FE00000000000000000000000000003F48
:103B40003F00000000000000000000909090FEFE8A
:103B500000FEFE00000000000000000000003F3FEB
:103B6000003F3F00000000000000000000000000D7
:103B700000000000000008080808080F0F080808E7
:103B8000080800000000000000000000000000FE27
:103B9000FE10100000000404070704040404003FA2
:103BA0003F00000000000000000000000000FEFEDA
:103BB00010FEFE00000004040707040404043F3F55
:103BC000003F3F0000000000000000000000000077
:103BD000FEFE0000000004040707040404040400BF
:103BE0003F3F000000000000000000000000000057
:103BF0000000000000000808080F0F08080F0F0859
:103C000008080000000000000000000000000000A4
:103C100000000000000001010101013F3F0101011E
:103C2000010100000000000000000000000000FE94
:103C3000FE000000000001011F1F01010505043FF7
:103C40003F00000000000000000000000000FEFE39
:103C500000FEFE00000001011F1F010505053F3F9A
:103C6000003F3F000000000000000000000000FED8
:103C7000FE000000000001011F1F01010101003FC3
:103C80003F000000000000000000000000000000F5
:103C90000000000000000101013F3F01013F3F0122
:103CA0000101000000000000000000000000000012
:103CB00000000000000008080808080808080808B4
:103CC000080800000000000000000000000000FEE6
:103CD000FE00000000000404040404040404003F87
:103CE0003F0000000000000000000000000000FE97
:103CF000FE00000000000000000000000000003F87
:103D00003F00000000000000000000000000000074
:103D100000000000000000000000000000000000A3
:103D2000000000000000000000000000000000FE95
:103D3000FE10100000000000000000000000000164
:103D40000100000000000000000000000000FEFE76
:103D500010FEFE0000000000000000000000010155
:103D6000000101000000000000000000000000FE53
:103D7000FE484800000000000000000000000001B4
:103D80000100000000000000000000000000FEFE36
:103D900024FEFE0000000000000000000000010101
:103DA000000101000000000000000000001010FEF3
:103DB000FE00000000000000000000000000000104
:103DC0000100000000000000000000000010FEFEE6
:103DD00000FEFE00000000000000000000000101E5
:103DE000000101000000000000000000202828FE63
:103DF000FE000000000000000000000000000001C4
:103E00000100000000000000000000002028FEFE6D
:103E100000FEFE00000000000000000000000101A4
:103E200000010100000080808080E0E080808080D0
:103E30008080000000000000000000000000000082
:103E40000000000000008080E0E08080808000FEB4
:103E5000FE10100000000000000000000000000143
:103E60000100000000008080E0E080808080FEFE95
:103E700010FEFE0000000000000000000000010134
:103E80000001010000008080E0E08080808000FE72
:103E9000FE00000000000000000000000000000123
:103EA0000100000000008080E0E08080E0E0808091
:103EB0008080000000000000000000000000000002
:103EC00000000000000080808080808080808080F2
:103ED00080800000000000000000000303000000DC
:103EE000000000000000808080808080809010FEB4
:103EF000FE000000000000000303000000000001BD
:103F00000100000000008080808080809090FEFE94
:103F100000FEFE000000000003030000000001019D
:103F2000000101000000808080808080808000FE91
:103F3000FE0000000000000003030000000000017C
:103F40000100000000008080808080808080808070
:103F50008080000000000000000303000003030055
:103F60000000000000008080808080808080808051
:103F70008080000000000000000000000000000041
:103F8000000000000000808080808080808000FE33
:103F9000FE00000000000000000000000000000122
:103FA000010000000000000000000000000000FE12
:103FB000FE00000000000000000000000000000102
:103FC00001000000000000000000000000000000F0
:103FD00000000000000000000000000000000000E1
:103FE000000000000000000000000000000000FED3
:103FF000FE101000000000000000000000000001A2
:104000000100000000000000000000000000FEFEB3
:1040100010FEFE0000000000000000000000010192
:10402000000101000000000000000000000000FE90
:10403000FE484800000000000000000000000001F1
:104040000100000000000000000000000000FEFE73
:1040500024FEFE000000000000000000000001013E
:10406000000101000000000000000000001010FE30
:10407000FE00000000000000000000000000000141
:104080000100000000000000000000001010FEFE13
:1040900000FEFE0000000000000000000000010122
:1040A000000101000000000000000000282828FE98
:1040B000FE00000000000000000000000000000101
:1040C0000100000000000000000000002828FEFEA3
:1040D00000FEFE00000000000000000000000101E2
:1040E0000001010000008080808080E0E08080800E
:1040F00080800000000000000000000000000000C0
:10410000000000000000808080E0E080808000FEF1
:10411000FE10100000000000000000000000000180
:10412000010000000000808080E0E0808080FEFED2
:1041300010FEFE0000000000000000000000010171
:10414000000101000000808080E0E080808000FEAF
:10415000FE00000000000000000000000000000160
:10416000010000000000808080E0E08080E0E080CE
:10417000808000000000000000000000000000003F
:10418000000000000000808080808080808080802F
:104190008080000000000000000000030300000019
:1041A000000000000000808080808080809010FEF1
:1041B000FE000000000000000303000000000001FA
:1041C0000100000000008080808080809090FEFED2
:1041D00000FEFE00000000000303000000000101DB
:1041E000000101000000808080808080808000FECF
:1041F000FE000000000000000303000000000001BA
:1042000001000000000080808080808080808080AD
:104210008080000000000000000303000003030092
:10422000000000000000808080808080808080808E
:10423000808000000000000000000000000000007E
:10424000000000000000808080808080808000FE70
:10425000FE0000000000000000000000000000015F
:10426000010000000000000000000000000000FE4F
:10427000FE0000000000000000000000000000013F
:10428000010000000000000000000000000000002D
:10429000000000000000000000000000000000001E
:1042A000000000000000000000000000000000000E
:1042B0000000000000000000020202020202023EB2
:1042C0003E000000000000000000000000000000B0
:1042D000000000000000000202023E3E0202023E18
:1042E0003E00000000000000000000000000000090
:1042F000000000000000000202023E1E20301E1ED0
:10430000302000000000000000000000000000005D
:1043100000000000000000003E3E2020202020225F
:10432000220000000000000000000000000000006B
:10433000000000000000003E3E20200022321E1E31
:104340003222000000000000000000000000000019
:10435000000000000000003E3E202020143E2E2ED3
:104360003E140000000000000000000000000000FB
:1043700000000000000000003E3E222222222222F5
:10438000220000000000000000000000000000000B
:1043900000000000000000003A3A2A2A2A2A2A2EA9
:1043A0002E000000000000000000000000000000DF
:1043B000000000000000003A3A2A2E2E0002023EC1
:1043C0003E000000000000000000000000000000AF
:1043D000000000000000003A3A2E2E003E3E223E31
:1043E0003E0000000000000000000000000000008F
:1043F000000000000000003A3A2E2E003E3E283E0B
:104400003E0000000000000000000000000000006E
:10441000000000000000003A3A2A2E0E20301E1E36
:10442000302000000000000000000000000000003C
:10443000000000000000003A3A2E2E003E3E2A2ADC
:104440002A00000000000000000000000000000042
:10445000000000000000003A3A2E2E223E3E223E8E
:104460003E220000000000000000000000000000EC
:10447000000000000000003A3A2A2E2E143E2E2E94
:104480003E140000000000000000000000000000DA
:1044900000000000000000003E3E22222222223EB8
:1044A0003E000000000000000000000000000000CE
:1044B00000000000000000003E3E28282828283E7A
:1044C0003E000000000000000000000000000000AE
:1044D000000000000000003E3E283E1E20301E1E50
:1044E000302000000000000000000000000000007C
:1044F00000000000000000002030180C060C1830EE
:10450000200000000000000000000000000000008B
:10451000000000000000002030182E3E180E0E187B
:10452000302000000000000000000000000000003B
:1045300000000000000000001C3E22222222223E39
:104540001C0000000000000000000000000000004F
:10455000000000000000000022321A0E060E1A327F
:104560002200000000000000000000000000000029
:10457000000000000000000024341C0E060E1C3455
:104580002400000000000000000000000000000007
:1045900000000000000000000A0A0A0A0A0A0A3E97
:1045A0003E000000000000000000000000000000CD
:1045B00000000000000000003E3E2A2A2A2A2A2A83
:1045C0002A000000000000000000000000000000C1
:1045D0000000000000000000223E3E2222223E3E5B
:1045E00022000000000000000000000000000000A9
:1045F0000000000000000000143C2C2E2E2E2C3C4D
:104600001400000000000000000000000000000096
:10461000000000000000000000000000000000009A
:10462000000000000000000000000000000000008A
:104630000000000000000000020202020202023E2E
:104640003E0000000000000000000000000000002C
:10465000000000000000000202023E3E0202023E94
:104660003E0000000000000000000000000000000C
:10467000000000000000000202023E1E20301E1E4C
:1046800030200000000000000000000000000000DA
:1046900000000000000000003E3E202020202022DC
:1046A00022000000000000000000000000000000E8
:1046B000000000000000003E3E20200022321E1EAE
:1046C0003222000000000000000000000000000096
:1046D000000000000000003E3E202020143E2E2E50
:1046E0003E14000000000000000000000000000078
:1046F00000000000000000003E3E22222222222272
:104700002200000000000000000000000000000087
:1047100000000000000000003A3A2A2A2A2A2A2E25
:104720002E0000000000000000000000000000005B
:10473000000000000000003A3A2A2E2E0202023E3B
:104740003E0000000000000000000000000000002B
:10475000000000000000003A3A2E2E003E3E223EAD
:104760003E0000000000000000000000000000000B
:10477000000000000000003A3A2E2E003E3E283E87
:104780003E000000000000000000000000000000EB
:10479000000000000000003A3A2A2E0E20301E1EB3
:1047A00030200000000000000000000000000000B9
:1047B000000000000000003A3A2E2E003E3E2A2A59
:1047C0002A000000000000000000000000000000BF
:1047D000000000000000003A3A2E2E223E3E223E0B
:1047E0003E22000000000000000000000000000069
:1047F000000000000000003A3A2A2E2E143C2E2E13
:104800003C14000000000000000000000000000058
:1048100000000000000000003E3E22222222223E34
:104820003E0000000000000000000000000000004A
:1048300000000000000000003E3E28282828283EF6
:104840003E0000000000000000000000000000002A
:10485000000000000000003E3E283E1E20301E1ECC
:1048600030200000000000000000000000000000F8
:1048700000000000000000002030180C060C18306A
:104880002000000000000000000000000000000008
:10489000000000000000002030182E3E180E0E18F8
:1048A00030200000000000000000000000000000B8
:1048B00000000000000000001C3E22222222223EB6
:1048C0001C000000000000000000000000000000CC
:1048D000000000000000000022321A0E060E1A32FC
:1048E00022000000000000000000000000000000A6
:1048F000000000000000000024341C0E060E1C34D2
:104900002400000000000000000000000000000083
:1049100000000000000000000A0A0A0A0A0A0A3E13
:104920003E00000000000000000000000000000049
:1049300000000000000000003E3E2A2A2A2A2A2AFF
:104940002A0000000000000000000000000000003D
:104950000000000000000000223E3E2222223E3ED7
:104960002200000000000000000000000000000025
:104970000000000000000000143C2C2E2E2E2C3CC9
:104980001400000000000000000000000000000013
:104990000000000000000000000000000000000017
:1049A0000000000000000000000000000000000007
:1049B00000000000000000000002020202020202E9
:1049C000023E3E0000000000000000000000000069
:1049D0000000000000000000020202023E3E02024F
:1049E000023E3E0000000000000000000000000049
:1049F00000000000000000000202023E3E002030E5
:104A00001E1E30200000000000000000000000001A
:104A10000000000000000000003E3E202020222276
:104A20002022220000000000000000000000000022
:104A300000000000000000003E3E20200022321E48
:104A40001E322200000000000000000000000000F4
:104A500000000000000000003E3E202020143E2EFA
:104A60002E3E1400000000000000000000000000C6
:104A70000000000000000000003E3E222222222210
:104A800022222200000000000000000000000000C0
:104A90000000000000000000003A3A2A2A2A2A2AD0
:104AA0002A2E2E0000000000000000000000000080
:104AB00000000000000000003A3A2A2E2E000202F8
:104AC000023E3E0000000000000000000000000068
:104AD00000000000000000003A3A2A2E2E003E3E60
:104AE000223E3E0000000000000000000000000028
:104AF00000000000000000003A3A2A2E2E003E3E40
:104B0000283E3E0000000000000000000000000001
:104B100000000000000000003A3A2A2E2E0020304B
:104B20001E1E3020000000000000000000000000F9
:104B300000000000000000003A3A2A2E2E003E3EFF
:104B40002A2A2A00000000000000000000000000E7
:104B500000000000000000003A3A2E2E223E3E22C5
:104B60003E3E2200000000000000000000000000A7
:104B700000000000000000003A3A2A2E2E143E2EBB
:104B80002E3E1400000000000000000000000000A5
:104B90000000000000000000003E3E2222222222EF
:104BA000223E3E0000000000000000000000000067
:104BB0000000000000000000003E3E2828282828B1
:104BC000283E3E0000000000000000000000000041
:104BD00000000000000000003E3E283E3E00203065
:104BE0001E1E302000000000000000000000000039
:104BF0000000000000000000002030180C06060C29
:104C0000183020000000000000000000000000003C
:104C100000000000000000002030180E2E38180E92
:104C20000E1830200000000000000000000000000E
:104C30000000000000000000001C3E222222222270
:104C4000223E1C00000000000000000000000000E8
:104C500000000000000000000022321A0E06060EBE
:104C60001A322200000000000000000000000000D6
:104C700000000000000000000024341C0C06060C9C
:104C80001C342400000000000000000000000000B0
:104C90000000000000000000000A0A0A0A0A0A0ACE
:104CA0000A3E3E000000000000000000000000007E
:104CB0000000000000000000003E3E2A2A2A2A2AA6
:104CC0002A2A2A0000000000000000000000000066
:104CD000000000000000000022223E3E2222223E70
:104CE0003E22220000000000000000000000000042
:104CF000000000000000000000143C2C2C2E2E2C84
:104D00002C3C140000000000000000000000000027
:104D10000000000000000000000000000000000093
:104D20000000000000000000000000000000000083
:104D30000000000000000002020202020202023E25
:104D40003E00000000000000000000000000000025
:104D5000000000000000000202023E3E0202023E8D
:104D60003E00000000000000000000000000000005
:104D7000000000000000000202023E1E20301E1E45
:104D800030200000000000000000000000000000D3
:104D9000000000000000003E3E20202020202020B7
:104DA00020000000000000000000000000000000E3
:104DB000000000000000003E3E202022321E1E3275
:104DC00022000000000000000000000000000000C1
:104DD000000000000000003E3E202020143E2E2E49
:104DE0003E14000000000000000000000000000071
:104DF000000000000000003E3E2222222222222249
:104E00002200000000000000000000000000000080
:104E1000000000000000003A3A2A2A2A2A2A2A2EF4
:104E20002E00000000000000000000000000000054
:104E3000000000000000003A3A2A2E2E0202023E34
:104E40003E00000000000000000000000000000024
:104E5000000000000000003A3A2E2E003E3E223EA6
:104E60003E00000000000000000000000000000004
:104E7000000000000000003A3A2E2E003E3E283E80
:104E80003E000000000000000000000000000000E4
:104E9000000000000000003A3A2A2E0E20301E1EAC
:104EA00030200000000000000000000000000000B2
:104EB000000000000000003A3A2E2E003E3E2A2A52
:104EC0002A000000000000000000000000000000B8
:104ED000000000000000003A3A2E2E223E3E223E04
:104EE0003E22000000000000000000000000000062
:104EF000000000000000003A3A2A2E2E143E2E2E0A
:104F00003E1400000000000000000000000000004F
:104F1000000000000000003E3E2222222222223E0B
:104F20003E00000000000000000000000000000043
:104F3000000000000000003E3E2828282828283EC7
:104F40003E00000000000000000000000000000023
:104F5000000000000000003E3E283E1E20301E1EC5
:104F600030200000000000000000000000000000F1
:104F7000000000000000002030180C06060C18305D
:104F80002000000000000000000000000000000001
:104F90000000000000002030180E2E38180E0E18E9
:104FA00030200000000000000000000000000000B1
:104FB000000000000000001C3E2222222222223E8D
:104FC0001C000000000000000000000000000000C5
:104FD0000000000000000022321A0E06060E1A32EF
:104FE000220000000000000000000000000000009F
:104FF0000000000000000024341C0C06060C1C34C9
:10500000240000000000000000000000000000007C
:10501000000000000000000A0A0A0A0A0A0A0A3E02
:105020003E00000000000000000000000000000042
:10503000000000000000003E3E2A2A2A2A2A2A2ACE
:105040002A00000000000000000000000000000036
:105050000000000000000022223E3E22223E3E22AE
:10506000220000000000000000000000000000001E
:1050700000000000000000143C2C2C2E2E2C2C3C98
:1050800014000000288CFBF709BC35182888FBF7B2
:1050900005BC00210720FBF71ABC00200AEB020424
:1050A0000B5C245C23430B54401C2028F6DB704728
:1050B00000200BEB02040B5C245C23430B54401CCC
:1050C0002028F6DB704700200FF214040B5C144418
:1050D000245C23430B54401C2028F5DB7047000060
:1050E00000000000000000000000000000000000C0
:1050F00000000000000000000000000000000000B0
:10510000080808080888C87830000000000000007F
:105110000000040603010000000000000000000081
:10512000080808C8F83090F0600000000000000097
:105130000004070300060701000000000000000053
:1051400000F8F8000000000000000000000000006F
:105150000003070404040406020301000000000029
:105160000808C8F838080808080000000000000017
:105170000003070404040406020301000000000009
:10518000C8F83808C8F83808080000000000000017
:1051900003070406030704060203010000000000E1
:1051A000000888C8587020000000000000000000BF
:1051B00000030704040406020301000000000000CD
:1051C00000FCFC08081890F06000000000000000DF
:1051D00000030300020303020200000000000000BD
:1051E00000FCFC80C04040F8F80000000000000017
:1051F0000007070103060407030000000000000089
:10520000F0F080F0F08080F0F0000000000000007E
:105210000307040707040603010000000000000064
:10522000000000C0F0F8880000000000000000004E
:105230000406030100010306040000000000000052
:105240000080E0F898C0F0B80800000000000000FE
:10525000020301020301000103020000000000003C
:10526000C0E03010103020E0C0000000000000005E
:105270000001030202020301000000000000000020
:10528000000808081890F06000000000000000000E
:1052900000040402030103060400000000000000F3
:1052A0000008C8E8B890D07020000000000000009E
:1052B00000070700070701030604000000000000C4
:1052C000001010121694F4600000000000000000AE
:1052D00000040402030103060400000000000000B3
:1052E0008088888898D0F0600000000000000000EE
:1052F00000000406030100000000000000000000A0
:1053000008C8F8784848480800000000000000007D
:105310000003070404040406020301000000000067
:105320000808F8F80888F878080000000000000075
:105330000202030303030202030100000000000055
:1053400000101094D45C7CE080000000000000009D
:105350000000030704040603010000000000000031
:10536000000000000000000000000000000000003D
:10537000000000000000000000000000000000002D
:1053800000000404040404040C0808F8F000000001
:1053900000000000000000000004070300000000FF
:1053A0000004040484C47C3808080888F8700000ED
:1053B00000000001010000000000010100000000E9
:1053C0000000003C7C404040404040400000000065
:1053D00000000000000000000000000000000000CD
:1053E000000404347C4C44444444444040000000E5
:1053F00000000000000000000000000000000000AD
:105400000004347C4C4444747C4C4464240000000C
:10541000000000000000000000000000000000008C
:10542000000000287A5A4A4A4A4E6C2020000000A8
:10543000000000000000000000000000000000006C
:105440000000007C7C08444444647C580000000058
:10545000000000000000000000000000000000004C
:105460000000007E7E30784848587C3C00000000F8
:10547000000000000000000000000000000000002C
:105480000000003C7C50507C7C50507C3C00000074
:10549000000000000000000000000000000000000C
:1054A000000080C06030181C3420604040000000C4
:1054B00000000000000000000000000000000000EC
:1054C00000004070383C646030183C6440000000CC
:1054D00000000000000000000000000000000000CC
:1054E0000000003078CC84848CC878300000000044
:1054F00000000000000000000000000000000000AC
:1055000000040484E4743C286040C0800000000073
:105510000000000101000000000000000000000089
:105520000000444464347C4C64343C2860400000F7
:10553000000000000000000000000000000000006B
:1055400000040587C6643C386040C080000000004D
:105550000000000101000000000000000000000049
:1055600000004444444444444C4848F8F0000000DF
:10557000000000000000000000040703000000001D
:105580000004043C7C545454545454400000000023
:10559000000000000000000000000000000000000B
:1055A00000000004447C7C44647C5C4404000000F3
:1055B00000000000000000000000000000000000EB
:1055C0000000000064F4949D8DCF7E300000000048
:1055D00000000000000000000000000000000000CB
:1055E00000000000000000000000000000000000BB
:1055F00000000000000000000000000000000000AB
:1056000000000000010101010143623E1C00000096
:10561000000000000000000000000000000000008A
:105620000000020202223E1C0444643C18000000F8
:10563000000000000000000000000000000000006A
:105640000000000F1F1010101010101000000000BC
:10565000000000000000000000000000000000004A
:10566000000002020A1E16121212121000000000A0
:10567000000000000000000000000000000000002A
:1056800000020E1E1212120E1E1212121200000042
:10569000000000000000000000000000000000000A
:1056A00000000000143D2D252527361010000000B5
:1056B00000000000000000000000000000000000EA
:1056C0000000003F3F002121313B2E04000000007C
:1056D00000000000000000000000000000000000CA
:1056E0000000003F3F081C34242C3E1E0000000038
:1056F00000000000000000000000000000000000AA
:1057000000001F3F28381C1F3F28381E0E000000D5
:105710000000000000000000000000000000000089
:10572000000000002030180C0F1B1030200000007B
:105730000000000000000000000000000000000069
:10574000000020301C0F3B30180E1F3120000000DD
:105750000000000000000000000000000000000049
:10576000000000000C1E33212123321E0C0000001B
:105770000000000000000000000000000000000029
:1057800000000101012131190D1F1230200000001D
:105790000000000000000000000000000000000009
:1057A00000002131191D372331191F362000000058
:1057B00000000000000000000000000000000000E9
:1057C000000002020223331B1F14302020000000BF
:1057D00000000000000000000000000000000000C9
:1057E00000000000111111111352723E1C00000044
:1057F00000000000000000000000000000000000A9
:10580000000001011D3F272525252535101000002A
:105810000000000000000000000000000000000088
:1058200000000001212F3F3131392D2531100000BA
:105830000000000000000000000000000000000068
:1058400000000002327A4B4F47673E18000000000C
:105850000000000000000000000000000000000048
:105860000000000000000000000000000000000038
:105870000000000000000000000000000000000028
:1058800000000808081890F0600000000000000008
:105890000000000000010100000000000000000006
:1058A0000404447C380898F0600000000000000008
:1058B00000000000000000000000000000000000E8
:1058C000003E7E40404040400000000000000000DC
:1058D00000000000000000000000000000000000C8
:1058E00004347C4C444464200000000000000000AC
:1058F00000000000000000000000000000000000A8
:1059000004347C4C747C4C642400000000000000D3
:105910000000000000000000000000000000000087
:105920000050F4B4949C98C04000000000000000B7
:105930000000000000000000000000000000000067
:10594000007C7C0444446C7850000000000000009F
:105950000000000000000000000000000000000047
:1059600000FCFC60D090FC7C000000000000000007
:105970000000000000000000000000000000000027
:105980007CFCA0A0FCFCA0F8780000000000000057
:105990000000000000000000000000000000000007
:1059A000C0F03C1C302060400000000000000000FF
:1059B00001010000000000000000000000000000E5
:1059C000C0F03CBCE0703C6C4000000000000000F7
:1059D00000000000000000000000000000000000C7
:1059E000003078484C444C78300000000000000043
:1059F00000000000000000000000000000000000A7
:105A000084C4643C7840C0800000000000000000B6
:105A10000101000000000000000000000000000084
:105A2000C4E43C78C4E43C78C0800000000000007E
:105A30000000000000000000000000000000000066
:105A400084C5673E7840C080000000000000000070
:105A50000000000000000000000000000000000046
:105A6000004048484858D0F06000000000000000A6
:105A70000000000000010100000000000000000024
:105A8000040474FC9C9494D44000000000000000C6
:105A90000000000000000000000000000000000006
:105AA000000484FCFCC4E4B4940000000000000086
:105AB00000000000000000000000000000000000E6
:105AC000000464F4969ECC783000000000000000D2
:105AD00000000000000000000000000000000000C6
